:100000000C942A000C9447000C9447000C94470071
:100010000C9447000C9447000C9447000C94470044
:100020000C9447000C9447000C9447000C94470034
:100030000C9447000C9447000C9447000C94470024
:100040000C9483040C9447000C9447000C944700D4
:100050000C94470011241FBECFE5D8E0DEBFCDBF12
:1000600010E0A0E6B0E0E2EFF4E102C005900D92EE
:10007000AC39B107D9F720E0ACE9B0E001C01D927E
:10008000A93AB207E1F70E9449040C94770A0C944C
:10009000000041E063E080E00E94AC04089563E06A
:1000A00080E00E94EA04089563E080E00E94070572
:1000B00008951F93CF93DF930097A1F1162FEC01C2
:1000C0006A8167708881412F41708F700E9442055C
:1000D0006A816695669566956770888111FB4427ED
:1000E00040F98F700E9442056A81862F829586951D
:1000F000869583706B816170660F660F682B8881AF
:1001000012FB442740F98F700E9442056B8166956F
:100110006770888113FB442740F98F700E94420565
:1001200081E001C080E0DF91CF911F910895CF93CE
:10013000DF930097E9F0EC016B8162956F70677057
:10014000888141E082958F700E9442058FE493EC94
:100150000197F1F700C000006B8162956F706770C6
:10016000888140E082958F700E94420581E001C045
:1001700080E0DF91CF9108951F93CF93DF93009795
:1001800049F1162FEC016B81862F881F8827881F65
:100190006C816370660F682B898140E08F700E94CC
:1001A0004205612F62956F70CE010E945900CE0109
:1001B0000E949700612F6F70CE010E945900CE01FE
:1001C0000E94970083EF91E00197F1F700C00000D3
:1001D00081E001C080E0DF91CF911F910895CF931E
:1001E000DF93EC016B8162956F706770888141E0ED
:1001F00082958F700E94AC046B81862F881F8827A0
:10020000881F6C816370660F682B898141E08F7055
:100210000E94AC046C81669566956770898141E0A7
:1002200082958F700E94AC046A816770888141E07A
:100230008F700E94AC046A816695669566956770BA
:10024000888141E08F700E94AC046A81862F82957C
:100250008695869583706B816170660F660F682B3B
:10026000888141E08F700E94AC046B816695677055
:10027000888141E08F700E94AC048FE097E2019783
:10028000F1F700C000006B8162956F706770888124
:1002900040E082958F700E9442056B81862F881FF7
:1002A0008827881F6C816370660F682B898140E006
:1002B0008F700E9442056C81669566956770898192
:1002C00040E082958F700E9442056A816770888144
:1002D00041E08F700E9442056A8166956695669539
:1002E0006770888141E08F700E9442056A81862F85
:1002F00082958695869583706B816170660F660F17
:10030000682B888140E08F700E9442056B81669562
:100310006770888140E08F700E944205CE010E9484
:10032000970081EE94E00197F1F700C000006B8127
:1003300062956F706770888140E082958F700E942F
:1003400042056B81862F881F8827881F6C81637008
:10035000660F682B898140E08F700E9442056C8196
:10036000669566956770898140E082958F700E94DE
:1003700042056A816770888141E08F700E94420562
:100380006A816695669566956770888141E08F7091
:100390000E9442056A81862F829586958695837094
:1003A0006B816170660F660F682B888140E08F70EB
:1003B0000E9442056B8166956770888140E08F706E
:1003C0000E944205CE010E94970092E39A95F1F7B0
:1003D0006B8162956F706770888140E082958F7045
:1003E0000E9442056B81862F881F8827881F6C8199
:1003F0006370660F682B898140E08F700E94420510
:100400006C81669566956770898140E082958F70F2
:100410000E9442056A816770888141E08F700E9466
:1004200042056A816695669566956770888141E0A8
:100430008F700E9442056A81862F829586958695E7
:1004400083706B816170660F660F682B888140E056
:100450008F700E9442056B8166956770888140E0CD
:100460008F700E944205CE010E94970061E0CE018C
:100470000E94BC0089EF90E00197F1F700C00000F6
:1004800062E0CE010E94BC0089EF90E00197F1F795
:1004900000C0000066E0CE010E94BC0089EF90E041
:1004A0000197F1F700C000006CE0CE010E94BC0093
:1004B00089EF90E00197F1F700C000006CE1CE01F8
:1004C0000E94BC0089EF90E00197F1F700C00000A6
:1004D00068E2CE010E94BC0089EF90E00197F1F73D
:1004E00000C0000060E8CE010E94BC0089EF90E0EF
:1004F0000197F1F700C00000DF91CF9108950097B8
:1005000021F00E94EF0081E0089580E008956230BC
:1005100071F018F4613031F00895633069F064309F
:1005200081F008956FE7640F0E94BC0008956FEB9F
:10053000640F0E94BC00089563E9640F0E94BC0030
:10054000089563ED640F0E94BC0008951F93CF933C
:10055000DF93009719F1162FEC016B81862F881F0E
:100560008827881F6C816370660F682B898141E042
:100570008F700E944205612F62956F70CE010E94BC
:100580005900CE010E949700612F6F70CE010E942A
:100590005900CE010E94970081E001C080E0DF9108
:1005A000CF911F910895EF92FF920F931F93CF93D6
:1005B000DF938C01F62EE42EE9010097C9F062E08A
:1005C0000E94BC004E2D6F2DC8010E94870280E062
:1005D0000BC02196C8010E94A60289EF90E0019706
:1005E000F1F700C0000081E068816111F2CF01C025
:1005F00080E0DF91CF911F910F91FF90EF900895D0
:100600000F931F93CF93DF938C01EB01892B61F440
:1006100080E00EC02196C8010E94A60289EF90E0FA
:100620000197F1F700C0000068816111F3CF81E00C
:10063000DF91CF911F910F9108951F928F938AE6BA
:1006400090E09F938F937F936F930E948D070F90FD
:100650000F900F900F900F900F900895CF93DF930E
:10066000FC01892BE9F080818F70282F30E0243045
:100670003105C4F4608162956F70262F30E0283018
:10068000310594F4EF0141E00E94AC048881682FA9
:1006900062956F7040E08F700E94420581E005C056
:1006A00080E003C080E001C080E0DF91CF91089539
:1006B000FC01892BA9F09081892F8F70282F30E0C1
:1006C000243031057CF4692F62956F70262F30E05D
:1006D000283031054CF440E00E94420581E0089545
:1006E00080E0089580E0089580E00895FC01892B62
:1006F000A1F09081892F8F70282F30E024303105B0
:1007000074F4692F62956F70262F30E02830310520
:1007100044F40E94250581E0089580E0089580E07A
:10072000089580E00895CF93DF93FC01892BC9F0F1
:1007300080818F70282F30E024303105A4F461814E
:10074000683098F4EF0141E00E94AC04888140E0F9
:1007500069818F700E9442058A818E7F8A8381E041
:1007600005C080E003C080E001C080E0DF91CF9150
:100770000895CF93DF93FC01892B99F080818F70CE
:10078000282F30E02430310574F46181683068F43A
:10079000EF0141E00E9442058A8181608A8381E005
:1007A00005C080E003C080E001C080E0DF91CF9110
:1007B0000895CF93DF93FC01892B99F080818F708E
:1007C000282F30E02430310574F46181683068F4FA
:1007D000EF0140E00E9442058A818E7F8A8381E09A
:1007E00005C080E003C080E001C080E0DF91CF91D0
:1007F0000895CF93DF930097A9F0FC0120812F701B
:1008000099F4EC01608162956F70677040E0822F0F
:100810000E94AC04888182958F7087700E94580472
:1008200081E003C080E001C080E0DF91CF910895B6
:10083000CF93DF93FC01892B31F190819F7029F5D3
:10084000EB0180E18A95F1F700C0808182958F707D
:1008500087700E9470040E947A04BC0180E090E0DE
:100860000E9492062AE038E240EA5BE30E942007F9
:100870002AE037ED43E25CE30E94F1050E94630643
:10088000688381E003C080E001C080E0DF91CF9108
:1008900008950E94800580919F00882319F081307F
:1008A00021F0F9CF0E949505F6CF0E94C705F3CF3E
:1008B00040E0682F80E00E94AC0487B18F7387B955
:1008C00087B1806487B986B18F7D86B987B18F7D06
:1008D00087B986B1806886B986B1876086B9089580
:1008E00097B1907E97B997B1892B87B986B180640B
:1008F00086B908953699FECF24B185B190E0982F3E
:100900008827822B08951F920F920FB60F92112401
:100910002F933F934F935F936F937F938F939F9307
:10092000AF93BF93EF93FF93E0919C00F0919D00F4
:10093000309709F00995FF91EF91BF91AF919F9189
:100940008F917F916F915F914F913F912F910F9078
:100950000FBE0F901F9018958430A0F56830A0F559
:100960004230A0F5442319F04130B9F031C0E82FEE
:10097000F0E0EE0FFF1FEB58FF4F0190F081E02DEC
:10098000208181E090E002C0880F991F6A95E2F70C
:1009900080958223808381E00895E82FF0E0EE0FB8
:1009A000FF1FEB58FF4F0190F081E02D208181E087
:1009B00090E002C0880F991F6A95E2F7822B80832E
:1009C00081E0089580E0089580E0089580E0089532
:1009D00081E008958430B8F46830B8F4E82FF0E08E
:1009E000EE0FFF1FE359FF4F0190F081E02D2081B2
:1009F00081E090E002C0880F991F6A95E2F7822B90
:100A0000808381E0089580E0089580E00895843037
:100A1000C0F46830C0F4E82FF0E0EE0FFF1FE35998
:100A2000FF4F0190F081E02D208181E090E002C035
:100A3000880F991F6A95E2F780958223808381E071
:100A4000089580E0089580E008958430B8F4683017
:100A5000B8F4E82FF0E0EE0FFF1FE359FF4F0190CD
:100A6000F081E02D208181E090E002C0880F991F85
:100A70006A95E2F78227808381E0089580E00895F7
:100A800080E008958430A0F56830A0F54230A0F5EC
:100A9000442319F04130B9F031C0E82FF0E0EE0FF7
:100AA000FF1FE359FF4F0190F081E02D208181E08D
:100AB00090E002C0880F991F6A95E2F78095822323
:100AC000808381E00895E82FF0E0EE0FFF1FE359E7
:100AD000FF4F0190F081E02D208181E090E002C085
:100AE000880F991F6A95E2F7822B808381E0089531
:100AF00080E0089580E0089580E0089581E0089501
:100B000085E690E00E947F028EE990E00E94F90362
:100B10000E94490083E690E00E942E0380E690E068
:100B20000E94930310929F00089580E690E00E9437
:100B3000D90383E690E00E9458030E94540060EAC3
:100B400070E08EE990E00E9418042DE730E040E06C
:100B500060E085E690E00E94D30261EA70E0809157
:100B6000A0000E941D0361EA70E085E690E00E940B
:100B700000036AE870E085E690E00E94000380913F
:100B8000A000893218F081E080939F0008952CE83E
:100B900030E040E060E085E690E00E94D30280E62D
:100BA00090E00E94B9030E944F0083E690E00E940B
:100BB00076032FE38DE093E0215080409040E1F7F1
:100BC00000C000000E94540060EA70E08EE990E0EE
:100BD0000E9418048091A000883210F410929F00A7
:100BE00008950E9405060C94E6060E94DF0658F060
:100BF0000E94D80640F029F45F3F29F00C94CF06FC
:100C000051110C941A070C94D5060E94F70668F34C
:100C10009923B1F3552391F3951B550BBB27AA27B5
:100C200062177307840738F09F5F5F4F220F331FEF
:100C3000441FAA1FA9F335D00E2E3AF0E0E832D0B7
:100C400091505040E695001CCAF72BD0FE2F29D0BA
:100C5000660F771F881FBB1F261737074807AB078C
:100C6000B0E809F0BB0B802DBF01FF2793585F4F01
:100C70003AF09E3F510578F00C94CF060C941A0779
:100C80005F3FE4F3983ED4F3869577956795B795E3
:100C9000F7959F5FC9F7880F911D9695879597F9EE
:100CA0000895E1E0660F771F881FBB1F6217730767
:100CB0008407BA0720F0621B730B840BBA0BEE1F7C
:100CC00088F7E09508950E94FF0688F09F5798F0F6
:100CD000B92F9927B751B0F0E1F0660F771F881F41
:100CE000991F1AF0BA95C9F714C0B13091F00E945B
:100CF0001907B1E008950C941907672F782F8827FA
:100D0000B85F39F0B93FCCF3869577956795B39581
:100D1000D9F73EF490958095709561957F4F8F4FF0
:100D20009F4F0895E89409C097FB3EF490958095F5
:100D3000709561957F4F8F4F9F4F9923A9F0F92FA1
:100D400096E9BB279395F695879577956795B7951F
:100D5000F111F8CFFAF4BB0F11F460FF1BC06F5F05
:100D60007F4F8F4F9F4F16C0882311F096E911C017
:100D7000772321F09EE8872F762F05C0662371F038
:100D800096E8862F70E060E02AF09A95660F771F4C
:100D9000881FDAF7880F9695879597F9089597F940
:100DA0009F6780E870E060E008959FEF80EC089511
:100DB00000240A941616170618060906089500243A
:100DC0000A9412161306140605060895092E0394B4
:100DD000000C11F4882352F0BB0F40F4BF2B11F428
:100DE00060FF04C06F5F7F4F8F4F9F4F089557FD87
:100DF0009058440F551F59F05F3F71F04795880F89
:100E000097FB991F61F09F3F79F08795089512161F
:100E100013061406551FF2CF4695F1DF08C01616CB
:100E200017061806991FF1CF86957105610508947C
:100E30000895E894BB2766277727CB0197F9089593
:100E40000E9433070C94E6060E94D80638F00E94F0
:100E5000DF0620F0952311F00C94CF060C94D506F4
:100E600011240C941A070E94F70670F3959FC1F3A2
:100E7000950F50E0551F629FF001729FBB27F00D48
:100E8000B11D639FAA27F00DB11DAA1F649F66279D
:100E9000B00DA11D661F829F2227B00DA11D621FEC
:100EA000739FB00DA11D621F839FA00D611D221FA6
:100EB000749F3327A00D611D231F849F600D211D8A
:100EC000822F762F6A2F11249F5750409AF0F1F00D
:100ED00088234AF0EE0FFF1FBB1F661F771F881F76
:100EE00091505040A9F79E3F510580F00C94CF06D9
:100EF0000C941A075F3FE4F3983ED4F386957795F8
:100F00006795B795F795E7959F5FC1F7FE2B880F1B
:100F1000911D9695879597F90895AEE0B0E0E3E9C5
:100F2000F7E00C944E0A0D891E8986E08C831A83A3
:100F300009838FEF9FE79E838D83AE01475E5F4FEE
:100F40006F89788DCE0101960E94AF07EF81F885F9
:100F5000E00FF11F10822E96E4E00C946A0AABE0D9
:100F6000B0E0E5EBF7E00C94400A6C017B018A01EC
:100F7000FC0117821682838181FFCCC1CE010196CC
:100F80003C01F6019381F70193FD859193FF8191D7
:100F90007F01882309F4BAC1853239F493FD859124
:100FA00093FF81917F01853229F4B60190E00E9480
:100FB000A609E7CF912C212C312CFFE1F315D8F0B5
:100FC0008B3279F038F4803279F08332A1F4232D1A
:100FD00020611DC08D3261F0803369F4232D2160C2
:100FE00016C0832D8260382EE32DE4603E2E2AC089
:100FF000F32DF8601DC037FC2DC020ED280F2A30DE
:1010000040F08E32B9F436FC81C1232D2064322E9B
:1010100019C036FE06C08AE0989E200D1124922E3B
:1010200011C0EAE02E9E200D1124222EF32DF06235
:101030003F2E08C08C3621F4832D8068382E02C0E4
:10104000883641F4F70193FD859193FF81917F01EB
:101050008111B3CF982F9F7D9554933028F40C5F66
:101060001F4F9FE399830DC0833631F0833771F0B2
:10107000833509F059C021C0F801808189830E5F52
:101080001F4F88248394912C530113C02801F2E050
:101090004F0E511CF801A080B18036FE03C0692DAF
:1010A00070E002C06FEF7FEFC5010E949B094C0109
:1010B0008201F32DFF773F2E16C0280122E0420E59
:1010C000511CF801A080B18036FE03C0692D70E08C
:1010D00002C06FEF7FEFC5010E9490094C01F32D14
:1010E000F0683F2E820133FC1BC0822D90E08816F1
:1010F0009906B0F4B60180E290E00E94A6092A9415
:10110000F4CFF50137FC859137FE81915F01B6017F
:1011100090E00E94A60921102A9421E0821A9108E9
:101120008114910471F7E8C0843611F0893641F5D5
:10113000F80137FE07C060817181828193810C5F65
:101140001F4F08C060817181072E000C880B990B1E
:101150000E5F1F4FF32DFF763F2E97FF09C090952E
:101160008095709561957F4F8F4F9F4FF0683F2E10
:101170002AE030E0A3010E94E209882E861845C0CB
:10118000853731F4232D2F7EB22E2AE030E025C0A2
:10119000932D997FB92E8F36C1F018F4883579F0E8
:1011A000B5C0803719F0883721F0B0C0E92FE06171
:1011B000BE2EB4FE0DC0FB2DF460BF2E09C034FE60
:1011C0000AC0292F2660B22E06C028E030E005C0F4
:1011D00020E130E002C020E132E0F801B7FE07C0B4
:1011E00060817181828193810C5F1F4F06C0608195
:1011F000718180E090E00E5F1F4FA3010E94E20921
:10120000882E8618FB2DFF773F2E36FE0DC0232D2E
:101210002E7FA22E891458F434FE0BC032FC09C074
:10122000832D8E7EA82E05C0B82CA32C03C0B82C0D
:1012300001C0B92CA4FE0FC0FE01E80DF11D808194
:10124000803321F49A2D997EA92E09C0A2FE06C0F2
:10125000B394B39404C08A2D867809F0B394A3FCA8
:1012600011C0A0FE06C0B21488F4280C922C9B1862
:101270000EC0B21460F4B60180E290E00E94A609AC
:10128000B394F7CFB21418F42B1802C0982C212C69
:10129000A4FE10C0B60180E390E00E94A609A2FE61
:1012A00017C0A1FC03C088E790E002C088E590E089
:1012B000B6010CC08A2D867859F0A1FE02C08BE2DF
:1012C00001C080E2A7FC8DE2B60190E00E94A60971
:1012D000891438F4B60180E390E00E94A6099A943C
:1012E000F7CF8A94F301E80DF11D8081B60190E0FB
:1012F0000E94A6098110F5CF222009F442CEB60142
:1013000080E290E00E94A6092A94F6CFF601868139
:10131000978102C08FEF9FEF2B96E2E10C945C0A5D
:10132000FC010590615070400110D8F780959095B0
:101330008E0F9F1F0895FC016150704001900110B5
:10134000D8F7809590958E0F9F1F08950F931F9348
:10135000CF93DF93FB01238121FD03C08FEF9FEF2C
:101360002CC022FF16C04681578124813581421747
:10137000530744F4A081B1819D012F5F3F4F31831A
:1013800020838C93268137812F5F3F4F37832683BD
:1013900014C08B01EC01FB010084F185E02D09955F
:1013A000892BE1F6D80116968D919C91179701969D
:1013B00017969C938E931697CE01DF91CF911F9134
:1013C0000F910895FA01AA27283051F1203181F1B7
:1013D000E8946F936E7F6E5F7F4F8F4F9F4FAF4F3D
:1013E000B1E03ED0B4E03CD0670F781F891F9A1F50
:1013F000A11D680F791F8A1F911DA11D6A0F711D04
:10140000811D911DA11D20D009F468943F912AE00F
:10141000269F11243019305D3193DEF6CF010895F7
:10142000462F4770405D4193B3E00FD0C9F7F6CF28
:10143000462F4F70405D4A3318F0495D31FD4052F0
:10144000419302D0A9F7EACFB4E0A6959795879586
:1014500077956795BA95C9F7009761057105089565
:101460009B01AC010A2E0694579547953795279511
:10147000BA95C9F7620F731F841F951FA01D0895A9
:101480002F923F924F925F926F927F928F929F9294
:10149000AF92BF92CF92DF92EF92FF920F931F9382
:1014A000CF93DF93CDB7DEB7CA1BDB0B0FB6F89433
:1014B000DEBF0FBECDBF09942A88398848885F8473
:1014C0006E847D848C849B84AA84B984C884DF80E4
:1014D000EE80FD800C811B81AA81B981CE0FD11DC8
:1014E0000FB6F894DEBF0FBECDBFED010895F8949E
:0214F000FFCF2C
:1014F20001040022001011ACBF082569003B00382E
:1015020000350032003A0037003400310054656D76
:1015120070657261747572653A0043005468657251
:0C15220065206973206120666972650015
:00000001FF
